{
  "_format": "hh-sol-artifact-1",
  "contractName": "MedTwinTrust",
  "sourceName": "contracts/MedTwinTrust.sol",
  "abi": [
    {
      "anonymous": false,
      "inputs": [
        {
          "indexed": true,
          "internalType": "bytes32",
          "name": "docHash",
          "type": "bytes32"
        },
        {
          "indexed": true,
          "internalType": "address",
          "name": "doctor",
          "type": "address"
        },
        {
          "indexed": false,
          "internalType": "uint256",
          "name": "timestamp",
          "type": "uint256"
        }
      ],
      "name": "SignatureRecorded",
      "type": "event"
    },
    {
      "inputs": [
        {
          "internalType": "bytes32",
          "name": "docHash",
          "type": "bytes32"
        }
      ],
      "name": "isRecorded",
      "outputs": [
        {
          "internalType": "bool",
          "name": "",
          "type": "bool"
        }
      ],
      "stateMutability": "view",
      "type": "function"
    },
    {
      "inputs": [
        {
          "internalType": "bytes32",
          "name": "docHash",
          "type": "bytes32"
        }
      ],
      "name": "recordSignature",
      "outputs": [],
      "stateMutability": "nonpayable",
      "type": "function"
    },
    {
      "inputs": [
        {
          "internalType": "bytes32",
          "name": "docHash",
          "type": "bytes32"
        }
      ],
      "name": "verify",
      "outputs": [
        {
          "internalType": "address",
          "name": "doctor",
          "type": "address"
        },
        {
          "internalType": "uint256",
          "name": "timestamp",
          "type": "uint256"
        },
        {
          "internalType": "bool",
          "name": "exists",
          "type": "bool"
        }
      ],
      "stateMutability": "view",
      "type": "function"
    }
  ],
  "bytecode": "0x608060405234801561001057600080fd5b50610519806100206000396000f3fe608060405234801561001057600080fd5b50600436106100415760003560e01c806312dcb7a01461004657806375e36616146100765780639774ddd9146100a8575b600080fd5b610060600480360381019061005b9190610357565b6100c4565b60405161006d919061039f565b60405180910390f35b610090600480360381019061008b9190610357565b6100f0565b60405161009f93929190610414565b60405180910390f35b6100c260048036038101906100bd9190610357565b6101ad565b005b600080600083815260200190815260200160002060020160009054906101000a900460ff169050919050565b6000806000806000808681526020019081526020016000206040518060600160405290816000820160009054906101000a900473ffffffffffffffffffffffffffffffffffffffff1673ffffffffffffffffffffffffffffffffffffffff1673ffffffffffffffffffffffffffffffffffffffff168152602001600182015481526020016002820160009054906101000a900460ff1615151515815250509050806000015181602001518260400151935093509350509193909250565b60008082815260200190815260200160002060020160009054906101000a900460ff1615610210576040517f08c379a0000000000000000000000000000000000000000000000000000000008152600401610207906104a8565b60405180910390fd5b60405180606001604052803373ffffffffffffffffffffffffffffffffffffffff1681526020014281526020016001151581525060008083815260200190815260200160002060008201518160000160006101000a81548173ffffffffffffffffffffffffffffffffffffffff021916908373ffffffffffffffffffffffffffffffffffffffff1602179055506020820151816001015560408201518160020160006101000a81548160ff0219169083151502179055509050503373ffffffffffffffffffffffffffffffffffffffff16817fa0f3c94de3bcc3416ff98d1138f1a12e5a1d322c084045ba825ceff9e4dd076d4260405161031191906104c8565b60405180910390a350565b600080fd5b6000819050919050565b61033481610321565b811461033f57600080fd5b50565b6000813590506103518161032b565b92915050565b60006020828403121561036d5761036c61031c565b5b600061037b84828501610342565b91505092915050565b60008115159050919050565b61039981610384565b82525050565b60006020820190506103b46000830184610390565b92915050565b600073ffffffffffffffffffffffffffffffffffffffff82169050919050565b60006103e5826103ba565b9050919050565b6103f5816103da565b82525050565b6000819050919050565b61040e816103fb565b82525050565b600060608201905061042960008301866103ec565b6104366020830185610405565b6104436040830184610390565b949350505050565b600082825260208201905092915050565b7f446f63756d656e7420616c7265616479207265636f7264656400000000000000600082015250565b600061049260198361044b565b915061049d8261045c565b602082019050919050565b600060208201905081810360008301526104c181610485565b9050919050565b60006020820190506104dd6000830184610405565b9291505056fea2646970667358221220cec4076580dd91a37f49d6e8feb202893d1481126b3ebde9a4ad29c63de4a21864736f6c63430008140033",
  "linkReferences": {},
  "deployedLinkReferences": {}
}